:020000040800F2
:1000000000000320E14501082D4601082D460108A6
:100010002D4601082D4601082D460108000000006C
:100020000000000000000000000000002D46010854
:100030002D460108000000002D460108D1450108A9
:100040002D4601082D4601082D4601082D460108C0
:100050002D4601082D4601082D4601082D460108B0
:100060002D4601082D4601082D4601082D460108A0
:100070002D4601082D4601082D4601082D46010890
:100080002D4601082D4601082D4601082D46010880
:100090002D4601082D4601082D4601082D46010870
:1000A0002D4601082D4601082D4601082D46010860
:1000B0002D4601082D4601082D4601082D46010850
:1000C0002D4601082D4601082D4601082D46010840
:1000D0002D4601082D4601082D4601082D46010830
:1000E0002D4601082D4601082D4601082D46010820
:1000F0002D4601082D4601082D4601082D46010810
:100100002D4601082D4601082D4601082D460108FF
:100110002D4601082D460108950901082D460108C4
:100120002D4601082D4601082D4601082D460108DF
:100130002D4601082D4601082D4601082D460108CF
:100140002D4601082D4601082D4601082D460108BF
:100150002D4601082D4601082D4601082D460108AF
:100160002D4601082D4601082D4601082D4601089F
:100170002D4601082D4601082D460108000000000B
:100180002D4601082D4601082D4601082D4601087F
:100190002D4601082D4601082D4601082D4601086F
:0C01A0002D4601082D4601082D460108DF
:1001AC0010B5054C237833B9044B13B10448AFF3A5
:1001BC0000800123237010BD80040020000000008B
:1001CC001C470108084B10B51BB108490848AFF390
:1001DC0000800848036803B910BD074B002BFBD007
:1001EC00BDE81040184700BF000000008404002048
:1001FC001C470108800400200000000080B500AFFF
:10020C000E4A0E4B1B6843F4007313600B4A0B4BE6
:10021C001B6843F480631360084A084B1B6843F463
:10022C0080731360032000F069FB0F2010F01AFBA1
:10023C0007F0A4FD0023184680BD00BF003C02401F
:10024C0080B500AF134B4FF0FF321A62114B0022F6
:10025C001A62104B4FF0FF325A620E4B00225A6258
:10026C000C4B4FF0FF321A610A4B00221A61094BFA
:10027C004FF0FF325A61074B00225A61054B4FF089
:10028C00FF329A61034B00229A6107F07FFD002335
:10029C00184680BD0038024080B400AF00BFBD4698
:1002AC005DF8047B704700BF80B400AF00BFBD4653
:1002BC005DF8047B704700BF80B582B000AF7860FA
:1002CC0008F086F90246094BA3FB02239B0918464A
:1002DC0000F05EFB002279684FF0FF3000F01AFB53
:1002EC00002318460837BD4680BD00BFD34D6210B1
:1002FC0080B400AF044B1B680133034A136000BF8A
:10030C00BD465DF8047B7047E406002080B400AF66
:10031C00034B1B681846BD465DF8047B704700BF55
:10032C00E406002080B584B000AF78600023FB6049
:10033C00FFF7ECFFF86000BFFFF7E8FF0246FB6831
:10034C00D21A7B689A42F7D300BF1037BD4680BDE6
:10035C0080B400AF054A054B1B6823F00203136001
:10036C0000BFBD465DF8047B704700BF10E000E0A5
:10037C0080B400AF054A054B1B6843F002031360C1
:10038C0000BFBD465DF8047B704700BF10E000E085
:10039C0080B400AF024B1846BD465DF8047B704735
:1003AC000004040180B400AF034B1B681B0C1846FF
:1003BC00BD465DF8047B7047002004E080B400AFBC
:1003CC00044B1B68C3F30B031846BD465DF8047B56
:1003DC00704700BF002004E080B400AF054A054B15
:1003EC005B6843F00103536000BFBD465DF8047BBE
:1003FC00704700BF002004E080B400AF054A054BF5
:10040C005B6823F00103536000BFBD465DF8047BBD
:10041C00704700BF002004E080B400AF054A054BD4
:10042C005B6843F00203536000BFBD465DF8047B7C
:10043C00704700BF002004E080B400AF054A054BB4
:10044C005B6823F00203536000BFBD465DF8047B7C
:10045C00704700BF002004E080B400AF054A054B94
:10046C005B6843F00403536000BFBD465DF8047B3A
:10047C00704700BF002004E080B400AF054A054B74
:10048C005B6823F00403536000BFBD465DF8047B3A
:10049C00704700BF002004E080B483B000AF01239C
:1004AC007B607B6893FAA3F33B603B68B3FA83F3FE
:1004BC001A46064B13449B001A460123136000BFD7
:1004CC000C37BD465DF8047B704700BF00C1891036
:1004DC0080B483B000AF01237B607B6893FAA3F3F5
:1004EC003B603B68B3FA83F31A46064B13449B00FC
:1004FC001A460023136000BF0C37BD465DF8047B21
:10050C00704700BF00C1891080B483B000AF4FF4B6
:10051C0080737B607B6893FAA3F33B603B68B3FA10
:10052C0083F303F1845303F51C239B001A46012328
:10053C00136000BF0C37BD465DF8047B704700BFED
:10054C0080B483B000AF4FF480737B607B6893FA08
:10055C00A3F33B603B68B3FA83F303F1845303F5D5
:10056C001C239B001A460023136000BF0C37BD46AA
:10057C005DF8047B704700BF80B485B000AF786035
:10058C007B6803F00703FB600C4BDB68BB60BA684D
:10059C004FF6FF031340BB60FB681A02BB681343A2
:1005AC0043F0BF6343F40033BB60044ABB68D360C1
:1005BC0000BF1437BD465DF8047B704700ED00E0CA
:1005CC0080B400AF044BDB6803F4E0631B0A1846ED
:1005DC00BD465DF8047B704700ED00E080B483B04D
:1005EC0000AF0346FB71094997F907305B09FA79AB
:1005FC0002F01F02012000FA02F241F8232000BF92
:10060C000C37BD465DF8047B704700BF00E100E08D
:10061C0080B483B000AF0346FB71094997F90730EA
:10062C005B09FA7902F01F02012000FA02F2203372
:10063C0041F8232000BF0C37BD465DF8047B7047A2
:10064C0000E100E080B483B000AF0346FB710A4ABE
:10065C0097F907305B09403352F82320FB7903F0FC
:10066C001F0322FA03F303F0010318460C37BD46AF
:10067C005DF8047B704700BF00E100E080B483B0FC
:10068C0000AF0346FB71094997F907305B09FA790A
:10069C0002F01F02012000FA02F2403341F823203D
:1006AC0000BF0C37BD465DF8047B704700E100E0ED
:1006BC0080B483B000AF0346FB71094997F907304A
:1006CC005B09FA7902F01F02012000FA02F2603392
:1006DC0041F8232000BF0C37BD465DF8047B704702
:1006EC0000E100E080B483B000AF0346FB710A4A1E
:1006FC0097F907305B09803352F82320FB7903F01C
:10070C001F0322FA03F303F0010318460C37BD460E
:10071C005DF8047B704700BF00E100E080B483B05B
:10072C0000AF03463960FB7197F90730002B0BDAE9
:10073C000D49FB7903F00F03043B3A68D2B2120166
:10074C00D2B20B441A7609E0084997F907303A6897
:10075C00D2B21201D2B20B4483F8002300BF0C3783
:10076C00BD465DF8047B704700ED00E000E100E061
:10077C0080B483B000AF0346FB7197F90730002BB0
:10078C000ADA0D4AFB7903F00F03043B13441B7E7A
:10079C00DBB21B09DBB208E0084A97F907301344B7
:1007AC0093F80033DBB21B09DBB218460C37BD469D
:1007BC005DF8047B704700BF00ED00E000E100E055
:1007CC0080B489B000AFF860B9607A60FB6803F060
:1007DC000703FB61FB69C3F10703042B28BF042348
:1007EC00BB61FB690433062B02D9FB69033B00E0B8
:1007FC0000237B610122BB6902FA03F35A1EBB681A
:10080C001A407B699A4001217B6901FA03F3591E56
:10081C007B680B40134318462437BD465DF8047BB8
:10082C00704700BF80B489B000AFF860B9607A60DF
:10083C003B60BB6803F00703FB61FB69C3F1070373
:10084C00042B28BF0423BB61FB690433062B02D99C
:10085C00FB69033B00E000237B61FA687B69DA40AB
:10086C000121BB6901FA03F3013B1A407B681A6052
:10087C0001227B6902FA03F35A1EFB681A403B689B
:10088C001A6000BF2437BD465DF8047B704700BF7B
:10089C0080B400AFBFF34F8F0549054BDB6803F401
:1008AC00E062044B1343CB60BFF34F8F00BFFDE7F7
:1008BC0000ED00E00400FA0580B582B000AF78606E
:1008CC007B68013BB3F1807F01D301230FE00A4A1F
:1008DC007B68013B53600F214FF0FF30FFF71EFF89
:1008EC00054B00229A60044B07221A60002318461D
:1008FC000837BD4680BD00BF10E000E080B582B077
:10090C0000AF78607868FFF737FE00BF0837BD4648
:10091C0080BD00BF80B586B000AF0346B9607A6079
:10092C00FB7300237B61FFF74BFE78617A68B96833
:10093C007869FFF745FF024697F90F3011461846C4
:10094C00FFF7ECFE00BF1837BD4680BD80B582B006
:10095C0000AF0346FB7197F907301846FFF73EFED0
:10096C0000BF0837BD4680BD80B582B000AF0346DE
:10097C00FB7197F907301846FFF74AFE00BF08379E
:10098C00BD4680BD80B500AFFFF782FF00BF80BDC4
:10099C0080B582B000AF78607868FFF78DFF0346B2
:1009AC0018460837BD4680BD80B483B000AF786070
:1009BC001E4A7B685B7893607B681B78002B28D081
:1009CC001A4A7B685B68D36018497B681B7B1A07E3
:1009DC007B68DB7A1B061A437B689B7ADB041A4321
:1009EC007B685B7B9B041A437B689B7B5B041A4391
:1009FC007B68DB7B1B041A437B685B7A1B021A4304
:100A0C007B681B7A5B0013437A68127813430B6183
:100A1C0005E0064B0022DA60044B00221A6100BF8D
:100A2C000C37BD465DF8047B704700BF90ED00E0CD
:100A3C0080B500AFFFF7C4FD0346184680BD00BF6C
:100A4C0080B584B000AFB9607A603B600346FB733D
:100A5C0097F90F301846FFF78BFE3B687A68B96838
:100A6C00FFF7E0FE00BF1037BD4680BD80B582B0F9
:100A7C0000AF0346FB7197F907301846FFF7FEFDF0
:100A8C0000BF0837BD4680BD80B582B000AF0346BD
:100A9C00FB7197F907301846FFF7D4FD034618464B
:100AAC000837BD4680BD00BF80B582B000AF03469D
:100ABC00FB7197F907301846FFF7FAFD00BF0837AE
:100ACC00BD4680BD80B582B000AF0346FB7197F97F
:100ADC0007301846FFF706FE034618460837BD4692
:100AEC0080BD00BF80B483B000AF78607B68042BFE
:100AFC0006D1094A084B1B6843F00403136005E058
:100B0C00054A054B1B6823F00403136000BF0C3728
:100B1C00BD465DF8047B704710E000E080B500AF87
:100B2C0000F002F800BF80BD80B400AF00BFBD462E
:100B3C005DF8047B704700BF80B584B000AF78606F
:100B4C000023FB607B68002B01D101235AE07B68FA
:100B5C00022283F835207B681B681B68FB60FA68EF
:100B6C002A4B1340FB607B685A687B689B681A436E
:100B7C007B68DB681A437B681B691A437B685B697B
:100B8C001A437B689B691A437B68DB691A437B6851
:100B9C001B6A1343FA681343FB607B685B6A042B84
:100BAC0007D17B68DA6A7B681B6B1343FA681343C3
:100BBC00FB607B681B68FA681A607B681B685B6962
:100BCC00FB60FB6823F00703FB607B685B6AFA68D9
:100BDC001343FB607B685B6A042B04D17B689B6AC4
:100BEC00FA681343FB607B681B68FA685A61786883
:100BFC0000F0C4FB7B680022DA647B68012283F876
:100C0C003520002318461037BD4680BD3F8010F0BC
:100C1C0080B584B000AF78607B68002B01D10123D4
:100C2C003EE07B6893F83530DBB2022B01D1012317
:100C3C0036E07B681B687A681268126822F0010241
:100C4C001A607B681B6800221A607B681B68002294
:100C5C005A607B681B6800229A607B681B680022C4
:100C6C00DA607B681B6800221A617B681B68212292
:100C7C005A61786800F082FB0346FB607B685B6D11
:100C8C003F229A40FB689A607B680022DA647B689A
:100C9C00002283F835207B68002283F8342000235F
:100CAC0018461037BD4680BD80B584B000AFF860E3
:100CBC00B9607A603B60FB6893F83430012B01D14A
:100CCC0002231EE0FB68012283F83420FB68022219
:100CDC0083F83520FB681B68FA681268126822F0EA
:100CEC0001021A603B687A68B968F86800F018FB72
:100CFC00FB681B68FA681268126842F001021A60FD
:100D0C00002318461037BD4680BD00BF80B584B0A7
:100D1C0000AFF860B9607A603B60FB6893F83430E0
:100D2C00012B01D102232EE0FB68012283F8342031
:100D3C00FB68022283F83520FB681B68FA6812688E
:100D4C00126822F001021A603B687A68B968F86888
:100D5C0000F0E6FAFB681B68FA681268126842F049
:100D6C001E021A60FB681B68FA681268526942F02E
:100D7C0080025A61FB681B68FA681268126842F0BC
:100D8C0001021A60002318461037BD4680BD00BF13
:100D9C0080B584B000AF78600023FB607B681B6873
:100DAC007A681268126822F001021A60FFF7AEFA34
:100DBC00F86017E0FFF7AAFA0246FB68D31AB3F5FE
:100DCC007A7F0FD97B68DB6C43F020027B68DA6496
:100DDC007B68002283F834207B68032283F835205B
:100DEC0003230FE07B681B681B6803F00103002BD7
:100DFC00E0D17B68002283F834207B68012283F8E1
:100E0C003520002318461037BD4680BD80B58AB00A
:100E1C0000AFF860B9607A6000233B62FB681B6D21
:100E2C00FB61BB68002B06D1FB685B6D202202FACC
:100E3C0003F37B6205E0FB685B6D102202FA03F39F
:100E4C007B62FFF763FA386279E0FB691A68FB682A
:100E5C005B6D082101FA03F31340BB61FB691A684F
:100E6C00FB685B6D694901FA03F313407B61FB6915
:100E7C001A68FB685B6D664901FA03F313403B612A
:100E8C00BB69002B05D17B69002B02D13B69002B80
:100E9C0036D0BB69002B0BD0FB68DB6C43F0010236
:100EAC00FB68DA64FB685B6D08229A40FB699A6008
:100EBC007B69002B0BD0FB68DB6C43F00202FB68F8
:100ECC00DA64FB685B6D514A9A40FB699A603B6936
:100EDC00002B0BD0FB68DB6C43F00402FB68DA647C
:100EEC00FB685B6D4A4A9A40FB699A60FB68042276
:100EFC0083F83520FB68002283F83420012380E03E
:100F0C007B68B3F1FF3F1AD07B68002B07D0FFF74B
:100F1C00FDF902463B6AD21A7B689A420FD9FB68EC
:100F2C00DB6C43F02002FB68DA64FB68032283F875
:100F3C003520FB68002283F83420032361E0FB6931
:100F4C001A687B6A1340002B3FF47FAFBB68002B01
:100F5C002DD1FB685B6D30229A40FB699A60FB686F
:100F6C001B681B6803F48023002B17D0FB681B68DD
:100F7C001B6803F40023002B04D1FB68112283F8B7
:100F8C0035200FE0FB681B681B6803F40023002B63
:100F9C0008D0FB68212283F8352003E0FB6811227E
:100FAC0083F83520FB68002283F8342028E0FB68A6
:100FBC005B6D10229A40FB699A60FB681B681B688A
:100FCC0003F48023002B17D0FB681B681B6803F409
:100FDC000023002B04D1FB68312283F835200FE06D
:100FEC00FB681B681B6803F40023002B08D0FB680C
:100FFC00412283F8352003E0FB68312283F8352049
:10100C00002318462837BD4680BD00BF0100800074
:10101C000400800080B584B000AF78607B681B6DE5
:10102C00FB60FB681A687B685B6D082101FA03F3AF
:10103C001340002B2AD07B681B681B6803F0040349
:10104C00002B23D07B681B687A681268126822F028
:10105C0004021A607B685B6D08229A40FB689A60F8
:10106C007B68DB6C43F001027B68DA647B680422EA
:10107C0083F835207B68002283F834207B689B6CD6
:10108C00002B03D07B689B6C78689847FB681A68C8
:10109C007B685B6D934901FA03F31340002B2AD054
:1010AC007B681B685B6903F08003002B23D07B6893
:1010BC001B687A681268526922F080025A617B6858
:1010CC005B6D884A9A40FB689A607B68DB6C43F0E6
:1010DC0002027B68DA647B68042283F835207B6823
:1010EC00002283F834207B689B6C002B03D07B6838
:1010FC009B6C78689847FB681A687B685B6D7A49CB
:10110C0001FA03F31340002B2AD07B681B681B6881
:10111C0003F00203002B23D07B681B687A681268EB
:10112C00126822F002021A607B685B6D6E4A9A406C
:10113C00FB689A607B68DB6C43F004027B68DA64C2
:10114C007B68042283F835207B68002283F83420E6
:10115C007B689B6C002B03D07B689B6C78689847F2
:10116C00FB681A687B685B6D102101FA03F313406E
:10117C00002B4CD07B681B681B6803F00803002B0A
:10118C0045D07B681B681B6803F48023002B1DD0A3
:10119C007B685B6D10229A40FB689A607B681B68C9
:1011AC001B6803F40023002B04D17B68312283F8E5
:1011BC00352024E07B681B681B6803F40023002B9C
:1011CC001DD07B68412283F8352018E07B681B68B2
:1011DC001B6803F48073002B07D17B681B687A684B
:1011EC001268126822F008021A607B685B6D10228C
:1011FC009A40FB689A607B68312283F835207B68C3
:10120C001B6C002B03D07B681B6C78689847FB68C1
:10121C001A687B685B6D202101FA03F31340002BE5
:10122C005CD07B681B681B6803F01003002B55D047
:10123C007B681B681B6803F48023002B25D07B681C
:10124C005B6D20229A40FB689A607B681B681B6868
:10125C0003F40023002B08D17B685B6C002B3DD082
:10126C007B685B6C7868984738E07B681B681B6808
:10127C0003F40023002B31D07B68DB6B002B2DD0CB
:10128C007B68DB6B7868984728E07B681B681B6879
:10129C0003F48073002B07D17B681B687A68126893
:1012AC00126822F010021A607B685B6D20229A4053
:1012BC00FB689A607B68DA6C7B68DA647B68112265
:1012CC0083F835207B68002283F834207B68DB6B45
:1012DC00002B03D07B68DB6B7868984700BF103716
:1012EC00BD4680BD010080000400800080B483B046
:1012FC0000AF78607B6893F83530DBB218460C375A
:10130C00BD465DF8047B704780B483B000AF786055
:10131C007B68DB6C18460C37BD465DF8047B704768
:10132C0080B485B000AFF860B9607A603B60FB6850
:10133C001B68FA681268126822F480221A60FB6833
:10134C001B683A685A60FB689B68402B08D1FB68A5
:10135C001B687A689A60FB681B68BA68DA6007E0F9
:10136C00FB681B68BA689A60FB681B687A68DA606D
:10137C0000BF1437BD465DF8047B704780B485B060
:10138C0000AF78607B681B68DBB2103B144AA2FB91
:10139C0003231B09FB60134AFB6813441B781A4692
:1013AC007B685A65FB68032B09D97B681B6823F49F
:1013BC007F7323F003031A1D7B681A6507E07B68B3
:1013CC001B6823F47F7323F003037A6813657B682F
:1013DC001B6D18461437BD465DF8047B704700BF83
:1013EC00ABAAAAAA3447010880B584B000AF7860D4
:1013FC000023FB607B68002B01D101234DE07B684F
:10140C0093F83930DBB2002B06D17B68002283F8CD
:10141C003820786800F062F87B68022283F8392063
:10142C007B681B681B68FB60FB6823F44033FB6024
:10143C007B685B68FA681343FB607B681B68FA681F
:10144C001A607B681B685B6BFB60FB6823F007030F
:10145C00FB607B689B68FA681343FB607B681B68C6
:10146C00FA685A637B681B681B6CFB60FB6823F48F
:10147C007F5323F03F03FB607B68DB68FA68134300
:10148C00FB607B681B68FA681A647B680022DA636D
:10149C007B68012283F83920002318461037BD469B
:1014AC0080BD00BF80B582B000AF78607B68002B38
:1014BC0001D101230EE0786800F01AF87B68002255
:1014CC00DA637B68002283F839207B68002283F87A
:1014DC003820002318460837BD4680BD80B483B041
:1014EC0000AF786000BF0C37BD465DF8047B7047D9
:1014FC0080B483B000AF786000BF0C37BD465DF898
:10150C00047B704780B586B002AFF860B9607A6032
:10151C003B60FB6893F83830012B01D1022318E0B3
:10152C00FB68012283F83820FB68022283F83920FB
:10153C00BB6900933B687A68B968F86800F09CFD59
:10154C00FB681B68FA681268126842F001021A60A4
:10155C00002318461037BD4680BD00BF80B586B04D
:10156C0002AFF860B9607A603B60FB6893F8383082
:10157C00012B01D1022320E0FB68012283F83820E3
:10158C00FB68022283F83920BB6900933B687A68B8
:10159C00B968F86800F070FDFB681B68FA6812689F
:1015AC00126842F40C521A60FB681B68FA681268E5
:1015BC00126842F001021A60002318461037BD462B
:1015CC0080BD00BF80B586B002AFF860B9607A60AC
:1015DC003B60FB6893F83830012B01D102231CE0EF
:1015EC00FB68012283F83820FB68022283F839203B
:1015FC00FB681B687A685A61FB690093BB693A689F
:10160C00B968F86800F038FDFB681B68FA68126866
:10161C00126842F001021A60002318461037BD46CA
:10162C0080BD00BF80B586B002AFF860B9607A604B
:10163C003B60FB6893F83830012B01D1022324E086
:10164C00FB68012283F83820FB68022283F83920DA
:10165C00FB681B687A685A61FB690093BB693A683E
:10166C00B968F86800F008FDFB681B68FA68126836
:10167C00126842F40C521A60FB681B68FA68126814
:10168C00126842F001021A60002318461037BD465A
:10169C0080BD00BF80B584B000AF78600023FB60D4
:1016AC007B681B681B6823F0050343F00403BB60D5
:1016BC007B681B68BA681A60FEF728FEF86017E0B2
:1016CC00FEF724FE0246FB68D31AB3F57A7F0FD9D6
:1016DC007B68DB6B43F020027B68DA637B68032258
:1016EC0083F839207B68002283F8382003230FE02D
:1016FC007B681B681B6803F00103002BE0D17B683F
:10170C00002283F838207B68012283F839200023DB
:10171C0018461037BD4680BD80B584B000AF7860E8
:10172C000023FB607B681B687A681268126822F0E1
:10173C00030242F002021A60FEF7E8FDF86013E0C3
:10174C00FEF7E4FD0246FB68D31AB3F57A7F0BD99A
:10175C007B68DB6B43F020027B68DA637B680322D7
:10176C0083F83920032319E07B681B681B6803F09E
:10177C000203002B06D17B681B681B6803F0010376
:10178C00002BDDD17B681B681B6803F00103002B69
:10179C0003D07B68052283F83920002318461037C4
:1017AC00BD4680BD80B483B000AF78607B681B6899
:1017BC001B6803F00303032B03D17B68022283F81D
:1017CC0039207B681B687A681268126822F0030261
:1017DC001A60002318460C37BD465DF8047B704731
:1017EC0080B485B000AFF860384680E80E00FB6826
:1017FC0093F83830012B01D1022354E0FB6801220D
:10180C0083F83820FB68022283F83920BB69002B4F
:10181C0024D1FB681B683A681A63FB681A68FB687A
:10182C001B685B6A23F47F4323F01003B96808023A
:10183C007968090101430B435362FB681B68FA6822
:10184C001268126842F4C8521A60FB681B68FA6886
:10185C001268526A42F020025A6223E0FB681B684D
:10186C003A68DA62FB681A68FB681B68DB6923F468
:10187C007F4323F01003B96808027968090101431A
:10188C000B43D361FB681B68FA681268126842F458
:10189C00C8521A60FB681B68FA681268D26942F079
:1018AC002002DA61002318461437BD465DF8047B2C
:1018BC00704700BF80B584B000AF786039600023FA
:1018CC00FB607B681B681B6803F00103002B58D07E
:1018DC00FEF71CFDF8604DE07B681B685B6803F04D
:1018EC002103002B27D07B681B685B6803F0200367
:1018FC00002B05D07B68DB6B43F002027B68DA635C
:10190C007B681B685B6803F00103002B05D07B68C8
:10191C00DB6B43F001027B68DA637B681B68212276
:10192C009A607B68042283F839207B68002283F854
:10193C0038200123BAE03B68B3F1FF3F1AD03B6873
:10194C00002B07D0FEF7E2FC0246FB68D21A3B687C
:10195C009A420FD97B68002283F838207B68DB6BB6
:10196C0043F020027B68DA637B68032283F839201A
:10197C0003239BE07B681B685B6803F00203002B6E
:10198C00AAD07B681B68DB6903F02003002B3CD0DA
:10199C00FEF7BCFCF86031E07B681B685B6803F009
:1019AC000803002B0FD07B68DB6B43F004027B68D1
:1019BC00DA637B681B6808229A607B68042283F8D0
:1019CC003920012372E03B68B3F1FF3F16D03B682E
:1019DC00002B07D0FEF79AFC0246FB68D21A3B6834
:1019EC009A420BD97B68DB6B43F020027B68DA638D
:1019FC007B68032283F83920032357E07B681B683C
:101A0C005B6803F01003002BC6D07B681B685B6A15
:101A1C0003F02003002B3CD0FEF778FCF86031E09B
:101A2C007B681B685B6803F00803002B0FD07B6896
:101A3C00DB6B43F004027B68DA637B681B6808226B
:101A4C009A607B68042283F8392001232EE03B68DE
:101A5C00B3F1FF3F16D03B68002B07D0FEF756FCC6
:101A6C000246FB68D21A3B689A420BD97B68DB6B47
:101A7C0043F020027B68DA637B68032283F8392009
:101A8C00032313E07B681B685B6803F01003002BD7
:101A9C00C6D07B681B6812229A607B68012283F88F
:101AAC0039207B68002283F8382000231846103731
:101ABC00BD4680BD80B582B000AF78607B681B6886
:101ACC005B6803F00103002B28D07B681B681B6844
:101ADC0003F48073002B21D07B681B687A68126832
:101AEC00126822F480721A607B68DB6B43F001028F
:101AFC007B68DA637B681B6801229A607B6804222E
:101B0C0083F839207B68002283F838207B685B6976
:101B1C00002B03D07B685B69786898477B681B68EF
:101B2C005B6803F02003002B28D07B681B681B68C4
:101B3C0003F40053002B21D07B681B687A68126871
:101B4C00126822F400521A607B681B6820229A608B
:101B5C007B68DB6B43F002027B68DA637B680422F0
:101B6C0083F839207B68002283F838207B685B6916
:101B7C00002B03D07B685B69786898477B681B688F
:101B8C005B6803F00803002B28D07B681B681B687C
:101B9C0003F40063002B21D07B681B687A68126801
:101BAC00126822F400621A607B681B6808229A6033
:101BBC007B68DB6B43F004027B68DA637B6804228E
:101BCC0083F839207B68002283F838207B685B69B6
:101BDC00002B03D07B685B69786898477B681B682F
:101BEC005B6803F00403002B15D07B681B681B6833
:101BFC0003F48063002B0ED07B681B687A68126834
:101C0C00126822F480621A607B681B6804229A6056
:101C1C00786800F05BF87B681B685B6803F0020374
:101C2C00002B26D07B681B681B6803F40073002B09
:101C3C001FD07B681B687A681268126822F40072E5
:101C4C001A607B681B6802229A607B68DA6B7B687F
:101C5C00DA637B68012283F839207B68002283F8E1
:101C6C0038207B681B69002B03D07B681B69786864
:101C7C0098477B681B685B6803F01003002B21D02E
:101C8C007B681B681B6803F48053002B1AD07B689D
:101C9C001B687A681268126822F480521A607B689A
:101CAC001B6810229A607B68DA6B7B68DA637B684E
:101CBC00012283F839207B68002283F83820786869
:101CCC0000F00EF800BF0837BD4680BD80B483B06D
:101CDC0000AF786000BF0C37BD465DF8047B7047E1
:101CEC0080B483B000AF786000BF0C37BD465DF8A0
:101CFC00047B704780B485B000AF786039603B6876
:101D0C001B0118337A681344BB600023FB607B68AB
:101D1C005B68B3F5403F7B6893F83830012B01D1F9
:101D2C000223BCE07B68012283F838207B68022206
:101D3C0083F839203B68002B54D17B681B685B6AA5
:101D4C00FB60FA68594B1340FB60BB685B680A2B5D
:101D5C0003D0BB685B68092B0ED1BB685A68BB68A3
:101D6C009B681B041A43BB68DB6803F07F43134377
:101D7C00FA681343FB600CE0BB685A68BB689B684D
:101D8C001B041A43BB68DB681B061343FA68134336
:101D9C00FB607B681B68FA685A627B681B689B69EE
:101DAC00FB60FB6823F47F5323F03F03FB60BB68AD
:101DBC001B68FA681343FB607B681B68FA689A61BE
:101DCC00BB685B680A2B03D0BB685B68092B5DD1D1
:101DDC00BB68DB6823F07F43FB607B681B68FA6899
:101DEC009A6253E07B681B68DB69FB60FA682F4BD7
:101DFC001340FB60BB685B680A2B03D0BB685B6855
:101E0C00092B0ED1BB685A68BB689B681B041A432C
:101E1C00BB68DB6803F07F431343FA681343FB6032
:101E2C000CE0BB685A68BB689B681B041A43BB6810
:101E3C00DB681B061343FA681343FB607B681B6863
:101E4C00FA68DA617B681B681B69FB60FB6823F42A
:101E5C007F5323F03F03FB60BB681B68FA68134396
:101E6C00FB607B681B68FA681A61BB685B680A2BAD
:101E7C0003D0BB685B68092B08D1BB68DB6823F017
:101E8C007F43FB607B681B68FA681A627B680122DF
:101E9C0083F839207B68002283F838200023184609
:101EAC001437BD465DF8047B704700BFF0FFFC00A3
:101EBC0080B485B000AFF860384680E80E00FB684F
:101ECC0093F83830012B01D102233CE0FB6801224E
:101EDC0083F83820FB68022283F83920BB69002B79
:101EEC0014D1FB681B683A681A63FB681A68FB68B4
:101EFC001B685B6A23F47F4323F01003B968080264
:101F0C007968090101430B43536213E0FB681B68BA
:101F1C003A68DA62FB681A68FB681B68DB6923F4B1
:101F2C007F4323F01003B968080279680901014363
:101F3C000B43D361FB68012283F83920FB68002234
:101F4C0083F83820002318461437BD465DF8047B0F
:101F5C00704700BF80B483B000AF786039607B6895
:101F6C0093F83830012B01D102231CE07B6801224D
:101F7C0083F838207B68022283F839203B68002BD9
:101F8C0008D17B681B687A681268526A42F020029A
:101F9C005A6207E07B681B687A681268D26942F063
:101FAC002002DA61002318460C37BD465DF8047B2D
:101FBC00704700BF80B483B000AF786039603B6875
:101FCC00002B08D17B681B687A681268526A22F071
:101FDC0020025A6207E07B681B687A681268D26933
:101FEC0022F02002DA61002318460C37BD465DF85A
:101FFC00047B704780B483B000AF786039607B6835
:10200C0093F83830012B01D1022313E07B680122B5
:10201C0083F838207B68022283F83920084A3B6811
:10202C0093647B68012283F839207B68002283F853
:10203C003820002318460C37BD465DF8047B7047EA
:10204C0000B0024080B483B000AF78607B6893F836
:10205C003930DBB218460C37BD465DF8047B70474F
:10206C0080B483B000AF78607B68DB6B18460C37AC
:10207C00BD465DF8047B704780B48BB000AFF86050
:10208C00B9607A603B6000237B6200233B620023D3
:10209C00FB610023BB6100237B613B681B047B62FB
:1020AC00FB681B68396B7A6A0A435A64FB681B68C5
:1020BC007A68DA63FB685B68B3F5403F74D1BB6840
:1020CC0003F07F433B62BB6803F47F03FB61BB6897
:1020DC0003F47F43BB61BB68DBB27B61FB689B682D
:1020EC00002B08D1BA69FB691A433B6A1A437B6916
:1020FC0013437B6253E0FB689B68012B06D1BA69E2
:10210C00FB691A437B6913437B6248E0FB689B685D
:10211C00022B11D1FB69DB0CFB61BB699B0ABB6118
:10212C007B69DB087B61BB695A01FB69DB021A43E3
:10213C007B6913437B6232E0FB689B68032B17D1EE
:10214C003B6ADB0F3B62FB69DB0CFB61BB69DB0AA7
:10215C00BB617B69DB087B61BB695A01FB699B0234
:10216C001A433B6ADB031A437B6913437B6216E019
:10217C003B6A1B0F3B62FB691B0DFB61BB691B0BB5
:10218C00BB617B691B097B61BB691A01FB691B0283
:10219C001A433B6A1B031A437B6913437B62FB683C
:1021AC001B687A6A9A6303E0FB681B68BA68DA609A
:1021BC0000BF2C37BD465DF8047B704780B489B0F6
:1021CC0000AF7860396000237B6100233B61002302
:1021DC00BB610023FB6177E10122FB6902FA03F387
:1021EC007B613B681A687B6913403B613A697B6988
:1021FC009A4240F066813B685B68022B03D03B68D7
:10220C005B68122B23D1FB69DA087B68083253F820
:10221C002230BB61FB6903F007039B000F2202FA1B
:10222C0003F3DB43BA691340BB613B681A69FB6972
:10223C0003F007039B0002FA03F3BA691343BB6173
:10224C00FB69DA087B680832B96943F822107B68AD
:10225C001B68BB61FB695B00032202FA03F3DB43DF
:10226C00BA691340BB613B685B6803F00302FB690E
:10227C005B0002FA03F3BA691343BB617B68BA696A
:10228C001A603B685B68012B0BD03B685B68022BC8
:10229C0007D03B685B68112B03D03B685B68122B43
:1022AC0030D17B689B68BB61FB695B00032202FA3F
:1022BC0003F3DB43BA691340BB613B68DA68FB6923
:1022CC005B0002FA03F3BA691343BB617B68BA691A
:1022DC009A607B685B68BB610122FB6902FA03F3BD
:1022EC00DB43BA691340BB613B685B681B0903F0B5
:1022FC000102FB6902FA03F3BA691343BB617B6801
:10230C00BA695A607B68DB68BB61FB695B000322BE
:10231C0002FA03F3DB43BA691340BB613B689A686A
:10232C00FB695B0002FA03F3BA691343BB617B6878
:10233C00BA69DA603B685B6803F08053002B00F0ED
:10234C00C0800023FB60654A644B5B6C43F48043A4
:10235C005364624B5B6C03F48043FB60FB68604A24
:10236C00FB699B08023352F82330BB61FB6903F015
:10237C0003039B000F2202FA03F3DB43BA691340F9
:10238C00BB617B68574A934237D07B68564A93426D
:10239C0031D07B68554A93422BD07B68544A934288
:1023AC0025D07B68534A93421FD07B68524A934294
:1023BC0019D07B68514A934213D07B68504A9342A0
:1023CC000DD07B684F4A934207D07B684E4A9342AC
:1023DC0001D1092312E00A2310E008230EE00723A1
:1023EC000CE006230AE0052308E0042306E003239F
:1023FC0004E0022302E0012300E00023FA6902F06A
:10240C00030292009340BA691343BB613449FB69E0
:10241C009B080233BA6941F823203C4B1B68BB6113
:10242C003B69DB43BA691340BB613B685B6803F4EF
:10243C008033002B03D0BA693B691343BB61334A29
:10244C00BB691360314B5B68BB613B69DB43BA69A9
:10245C001340BB613B685B6803F40033002B03D073
:10246C00BA693B691343BB61284ABB695360274B6C
:10247C009B68BB613B69DB43BA691340BB613B683A
:10248C005B6803F48013002B03D0BA693B691343D8
:10249C00BB611E4ABB6993601C4BDB68BB613B692B
:1024AC00DB43BA691340BB613B685B6803F4001300
:1024BC00002B03D0BA693B691343BB61134ABB6958
:1024CC00D360FB690133FB61FB690F2B7FF684AE94
:1024DC0000BF2437BD465DF8047B704700380240CE
:1024EC000038014000000240000402400008024095
:1024FC00000C024000100240001402400018024080
:10250C00001C02400020024000240240003C01401C
:10251C0080B487B000AF7860396000233B61002342
:10252C00FB600023BB6000237B61DAE001227B6946
:10253C0002FA03F33B613A683B691340FB60FA68AB
:10254C003B699A4240F0CA807B681A687B695B00E1
:10255C00032101FA03F3DB431A407B681A607B69A1
:10256C00DA087B69D9087B68083153F821107B693C
:10257C0003F007039B000F2000FA03F3DB43194021
:10258C007B68083243F822107B689A687B695B0091
:10259C00032101FA03F3DB431A407B689A607B68E2
:1025AC005A6801217B6901FA03F3DB431A407B680B
:1025BC005A607B68DA687B695B00032101FA03F3DC
:1025CC00DB431A407B68DA604B4A7B699B08023319
:1025DC0052F82330BB607B6903F003039B000F228E
:1025EC0002FA03F3BA681340BB607B68434A934218
:1025FC0037D07B68424A934231D07B68414A934240
:10260C002BD07B68404A934225D07B683F4A93424B
:10261C001FD07B683E4A934219D07B683D4A934257
:10262C0013D07B683C4A93420DD07B683B4A934263
:10263C0007D07B683A4A934201D1092312E00A235E
:10264C0010E008230EE007230CE006230AE0052324
:10265C0008E0042306E0032304E0022302E0012344
:10266C0000E000237A6902F00302920003FA02F2FE
:10267C00BB689A4232D17B6903F003039B000F22A3
:10268C0002FA03F3BB601C487B699B081A497A6900
:10269C009208023251F82210BA68D2430A4002332F
:1026AC0040F823201F491F4B1A68FB68DB4313407B
:1026BC000B601C491B4B5A68FB68DB4313404B6097
:1026CC001849184B9A68FB68DB4313408B6015491B
:1026DC00144BDA68FB68DB431340CB607B69013336
:1026EC007B617B690F2B7FF621AF00BF1C37BD468A
:1026FC005DF8047B704700BF0038014000000240C9
:10270C000004024000080240000C0240001002408D
:10271C000014024000180240001C0240002002403D
:10272C0000240240003C014080B485B000AF7860CA
:10273C000B467B807B681A697B881340002B02D088
:10274C000123FB7301E00023FB73FB7B184614375A
:10275C00BD465DF8047B704780B483B000AF7860F1
:10276C000B467B8013467B707B78002B03D07A88DA
:10277C007B689A6103E07B881A047B689A6100BFCE
:10278C000C37BD465DF8047B704700BF80B483B046
:10279C0000AF78600B467B807B685A697B885A4017
:1027AC007B685A6100BF0C37BD465DF8047B7047EF
:1027BC0080B485B000AF78600B467B804FF48033DB
:1027CC00FB607A88FB681343FB60FA687B68DA610C
:1027DC007A887B68DA61FA687B68DA617B68DB6926
:1027EC00FB607B68DB6903F48033002B01D0002392
:1027FC0000E0012318461437BD465DF8047B704792
:10280C0080B582B000AF0346FB80084B5A69FB8849
:10281C001340002B06D0054AFB885361FB881846F1
:10282C0000F006F800BF0837BD4680BD003C0140F3
:10283C0080B483B000AF0346FB8000BF0C37BD46AD
:10284C005DF8047B704700BF80B584B000AF786042
:10285C000023FB600023BB607B68002B01D10123AC
:10286C00C8E07B6893F83D30DBB2002B06D17B6867
:10287C00002283F83C20786800F0F6F87B6824226C
:10288C0083F83D207B681B687A681268126822F016
:10289C0001021A6005F0C4FEB860BB68574AA2FB7F
:1028AC0003239B0CFB607B681B68FA685A607B688F
:1028BC001A687B685B6852498B4202D8FB6801330B
:1028CC0009E0FB684FF4967101FB03F34D49A1FB42
:1028DC0003139B09013313627B6819687B685B687F
:1028EC00474A934212D87B685B685B00BA68B2FBBC
:1028FC00F3F3C3F30B03032B06D97B685B685B0014
:10290C00BA68B2FBF3F345E0042343E07B689B68B1
:10291C00002B0FD17B685A6813465B001344BA68CE
:10292C00B2FBF3F3C3F30B03002B0CBF0123002307
:10293C00DBB210E07B685A6813469B0013449A0084
:10294C001344BA68B2FBF3F3C3F30B03002B0CBFB5
:10295C0001230023DBB2002B01D001231AE07B689A
:10296C009B68002B0AD17B685A6813465B001344A2
:10297C00BA68B2FBF3F343F400430BE07B685A688C
:10298C0013469B0013449A001344BA68B2FBF3F34A
:10299C0043F44043CB617B681B687A68D1697A68E1
:1029AC00126A0A431A607B681B687A6811697A6834
:1029BC00D2680A439A607B681B687A6851697A68A6
:1029CC0092690A43DA607B681B687A68126812683D
:1029DC0042F001021A607B6800221A647B68202294
:1029EC0083F83D207B6800221A637B68002283F801
:1029FC003E20002318461037BD4680BD83DE1B43A6
:102A0C00A0860100D34D621080B582B000AF786013
:102A1C007B68002B01D1012321E07B68242283F801
:102A2C003D207B681B687A681268126822F00102EC
:102A3C001A60786800F022F87B6800221A647B68C0
:102A4C00002283F83D207B6800221A637B680022F9
:102A5C0083F83E207B68002283F83C200023184634
:102A6C000837BD4680BD00BF80B483B000AF78602E
:102A7C0000BF0C37BD465DF8047B704780B483B053
:102A8C0000AF786000BF0C37BD465DF8047B704723
:102A9C0080B586B000AFF8607A601A460B467B8131
:102AAC0013463B81FB6893F83D30DBB2202B40F0A2
:102ABC00B78042F2107301225C49F86803F09AFF68
:102ACC000346002B01D00223ABE0FB6893F83C30AB
:102ADC00012B01D10223A4E0FB68012283F83C20E6
:102AEC00FB681B68FA681268126822F400621A60AC
:102AFC00FB68212283F83D20FB68102283F83E20DE
:102B0C00FB6800221A64FB68494ADA627B893A6ADC
:102B1C001946F86803F0F2FA0346002B0FD0FB6855
:102B2C001B6C042B05D1FB68002283F83C2001238D
:102B3C0077E0FB68002283F83C20032371E000233C
:102B4C007B61FB681B685B697B61FB681B689B692D
:102B5C007B617B694BE0396AF86804F04DF80346F9
:102B6C00002B0FD0FB681B6C042B09D1FB681B6876
:102B7C00FA681268126842F400721A60012350E07D
:102B8C0003234EE0FB681A687B68591C79601B783C
:102B9C0013613B89013B3B81FB681B685B6903F05C
:102BAC000403002B0CD03B89002B09D0FB681A685E
:102BBC007B68591C79601B7813613B89013B3B8115
:102BCC00396AF86804F058F80346002B0FD0FB68FC
:102BDC001B6C042B09D1FB681B68FA68126812681D
:102BEC0042F400721A6001231BE0032319E03B89B5
:102BFC00002BB0D1FB681B68FA681268126842F4AB
:102C0C0000721A60FB68202283F83D20FB680022CA
:102C1C0083F83E20FB68002283F83C20002300E070
:102C2C00022318461837BD4680BD00BF02001000B5
:102C3C000000FFFF80B588B000AFF8607A601A46DC
:102C4C000B467B8113463B81FB6893F83D30DBB22E
:102C5C00202B40F08A8142F2107301229149F868CE
:102C6C0003F0C8FE0346002B01D002237EE1FB6873
:102C7C0093F83C30012B01D1022377E1FB68012250
:102C8C0083F83C20FB681B68FA681268126822F40F
:102C9C0000621A60FB68222283F83D20FB68102238
:102CAC0083F83E20FB6800221A64FB687E4ADA62D5
:102CBC007B89BA6A1946F86803F09EFA0346002B22
:102CCC000FD0FB681B6C042B05D1FB68002283F82A
:102CDC003C2001234AE1FB68002283F83C200323BB
:102CEC0044E13B89002B13D10023FB61FB681B687B
:102CFC005B69FB61FB681B689B69FB61FB69FB689B
:102D0C001B68FA681268126842F400721A601AE1C1
:102D1C003B89012B1BD1FB681B68FA68126812688F
:102D2C0022F480621A600023BB61FB681B685B693C
:102D3C00BB61FB681B689B69BB61BB69FB681B685B
:102D4C00FA681268126842F400721A60FBE03B8960
:102D5C00022B1BD1FB681B68FA681268126822F4FC
:102D6C0080621A60FB681B68FA681268126842F489
:102D7C0000621A6000237B61FB681B685B697B61E6
:102D8C00FB681B689B697B617B69DCE0FB681B68EB
:102D9C00FA681268126842F480621A6000233B6180
:102DAC00FB681B685B693B61FB681B689B693B614B
:102DBC003B69C8E03B89032B00F299803B89012BCE
:102DCC001AD1B96AF86803F0D5FF0346002B07D077
:102DDC00FB681B6C202B01D10323C7E00123C5E04A
:102DEC007B685A1C7A60FA6812681269D2B21A703F
:102DFC003B89013B3B81A6E03B89022B29D1BB6A75
:102E0C0000222A49F86803F0F5FD0346002B01D097
:102E1C000323ABE0FB681B68FA681268126842F483
:102E2C0000721A607B685A1C7A60FA681268126920
:102E3C00D2B21A703B89013B3B817B685A1C7A6089
:102E4C00FA6812681269D2B21A703B89013B3B8155
:102E5C0079E0BB6A00221549F86803F0CBFD034604
:102E6C00002B01D0032381E0FB681B68FA68126811
:102E7C00126822F480621A607B685A1C7A60FA68C5
:102E8C0012681269D2B21A703B89013B3B81BB6A52
:102E9C0000220649F86803F0ADFD0346002B07D06D
:102EAC00032363E0020010000000FFFF0400010098
:102EBC00FB681B68FA681268126842F400721A60A8
:102ECC007B685A1C7A60FA6812681269D2B21A705E
:102EDC003B89013B3B817B685A1C7A60FA6812681B
:102EEC001269D2B21A703B89013B3B812BE0B96A63
:102EFC00F86803F03FFF0346002B07D0FB681B6C00
:102F0C00202B01D1032331E001232FE07B685A1CD5
:102F1C007A60FA6812681269D2B21A703B89013B66
:102F2C003B81FB681B685B6903F00403002B0AD030
:102F3C007B685A1C7A60FA6812681269D2B21A70ED
:102F4C003B89013B3B813B89002B7FF433AFFB6812
:102F5C00202283F83D20FB68002283F83E20FB688A
:102F6C00002283F83C20002300E00223184620377F
:102F7C00BD4680BD80B586B000AFF860B9603B60DF
:102F8C001346FB80FB6893F83D30DBB2202B40F0FE
:102F9C00CE80BB68002B02D0FB88002B01D1012313
:102FAC00C6E042F2107301226349F86803F022FD77
:102FBC000346002B01D00223BAE0FB6893F83C30A7
:102FCC00012B01D10223B3E0FB68012283F83C20E2
:102FDC00FB681B68FA681268126822F400621A60B7
:102FEC00FB68212283F83D20FB68202283F83E20D9
:102FFC00FB6800221A64FB68504ADA62FB681B68A3
:10300C00FA681268126842F480621A603B68002207
:10301C004B49F86803F0EEFC0346002B01D0032368
:10302C0086E000237B61FB681B685B697B61FB6846
:10303C001B689B697B617B69FB681B69B3F5404F1F
:10304C004BD13B6800223E49F86803F0D3FC0346A1
:10305C00002B01D003236BE000233B61FB681B6852
:10306C005B693B61FB681B689B693B613B6934E0B6
:10307C003968F86803F0C0FD0346002B0FD0FB68DD
:10308C001B68FA681268126822F480621A60FB6886
:10309C001B6C042B01D101234AE0032348E0FB689D
:1030AC001A68BB68591CB9601B781361FB88013B1B
:1030BC00FB80FB681B685B6903F00403002B0CD0DE
:1030CC00FB88002B09D0FB681A68BB68591CB960D7
:1030DC001B781361FB88013BFB80FB88002BC7D15D
:1030EC003B6800224FF48231F86803F083FC0346FE
:1030FC00002B01D003231BE0FB681B686FF480627C
:10310C005A61FB681B68FA681268126822F48062C4
:10311C001A60FB68202283F83D20FB68002283F8AC
:10312C003E20FB68002283F83C20002300E00223B1
:10313C0018461837BD4680BD020010000000FFFF86
:10314C000200010080B586B000AFF860B9603B604A
:10315C001346FB80FB6893F83D30DBB2202B40F02C
:10316C00CA80BB68002B02D0FB88002B01D1012345
:10317C00C2E042F2107301226149F86803F03AFC94
:10318C000346002B01D00223B6E0FB6893F83C30D9
:10319C00012B01D10223AFE0FB68012283F83C2014
:1031AC00FB681B68FA681268126822F400621A60E5
:1031BC00FB68222283F83D20FB68202283F83E2006
:1031CC00FB6800221A64FB684E4ADA62FB681B68D3
:1031DC00FA681268126842F480621A603B68002236
:1031EC004949F86803F006FC0346002B01D0032381
:1031FC0082E000237B61FB681B685B697B61FB6879
:10320C001B689B697B617B6936E03968F86803F061
:10321C00B1FD0346002B0FD0FB681B68FA681268DF
:10322C00126822F480621A60FB681B6C202B01D19F
:10323C00032361E001235FE0BB685A1CBA60FA68A3
:10324C0012681269D2B21A70FB88013BFB80FB68D2
:10325C001B685B6903F00403002B0DD0FB88002B6B
:10326C000AD0BB685A1CBA60FA6812681269D2B2EA
:10327C001A70FB88013BFB80FB88002BC5D12321F6
:10328C00F86803F039FD0346002B0FD0FB681B6870
:10329C00FA681268126822F480621A60FB681B6C70
:1032AC00042B01D1012327E0032325E000233B61FC
:1032BC00FB681B685B693B61FB681B68FA681268FA
:1032CC00126842F001021A603B69FB681B68FA68DD
:1032DC001268126822F480621A60FB68202283F85C
:1032EC003D20FB68002283F83E20FB68002283F817
:1032FC003C20002300E0022318461837BD4680BD51
:10330C00020010000000FFFF0200010080B586B033
:10331C0000AFF8607A601A460B467B8113463B81FE
:10332C00FB6893F83D30DBB2202B40F0888042F2F2
:10333C00107301224449F86803F05CFB0346002B30
:10334C0001D002237CE0FB6893F83C30012B01D1C7
:10335C00022375E0FB68012283F83C20FB681B68A4
:10336C00FA681268126822F400621A60FB68212263
:10337C0083F83D20FB68102283F83E20FB68002276
:10338C001A64FB687A685A62FB683A891A85FB688A
:10339C003A895A85FB682D4ADA627B8923221946C1
:1033AC00F86802F0ABFE0346002B0FD0FB681B6CD9
:1033BC00042B05D1FB68002283F83C2001233FE05D
:1033CC00FB68002283F83C20032339E000237B6157
:1033DC00FB681B685B697B61FB681B689B697B6195
:1033EC007B69FB681B8D002B0CD0FB68002283F8DB
:1033FC003C20FB681B68FA681268526842F4E06271
:10340C005A601AE0232300221149F86803F0F2FAFB
:10341C000346002B01D0032312E0FB681B68FA68FB
:10342C001268126842F400721A60FB68202283F85A
:10343C003D20FB68002283F83C20002300E002239F
:10344C0018461837BD4680BD020010000000FFFF73
:10345C008000010080B588B000AFF8607A601A4631
:10346C000B467B8113463B81FB6893F83D30DBB206
:10347C00202B40F0D98042F2107301226D49F8687C
:10348C0003F0B8FA0346002B01D00223CDE0FB6811
:10349C0093F83C30012B01D10223C6E0FB680122DA
:1034AC0083F83C20FB681B68FA681268126822F4E7
:1034BC0000621A60FB68222283F83D20FB68102210
:1034CC0083F83E20FB6800221A64FB687A685A6213
:1034DC00FB683A891A85FB683A895A85FB68564A13
:1034EC00DA627B8923221946F86802F085FE0346CE
:1034FC00002B0FD0FB681B6C042B05D1FB68002242
:10350C0083F83C20012390E0FB68002283F83C20E8
:10351C0003238AE0FB685B8D9BB2002B13D1002345
:10352C00FB61FB681B685B69FB61FB681B689B6943
:10353C00FB61FB69FB681B68FA681268126842F44D
:10354C0000721A6054E0FB685B8D9BB2012B1BD19F
:10355C00FB681B68FA681268126822F480621A60B1
:10356C000023BB61FB681B685B69BB61FB681B6864
:10357C009B69BB61BB69FB681B68FA6812681268BF
:10358C0042F400721A6033E0FB685B8D9BB2022B35
:10359C001BD1FB681B68FA681268126822F48062FF
:1035AC001A60FB681B68FA681268126842F40062C1
:1035BC001A6000237B61FB681B685B697B61FB689D
:1035CC001B689B697B617B6912E0FB681B68FA686E
:1035DC001268126842F480621A6000233B61FB6837
:1035EC001B685B693B61FB681B689B693B613B69C2
:1035FC00FB685B8D9BB2002B03D1FB68202283F808
:10360C003D20FB68002283F83C20FB685B8D9BB25D
:10361C00002B07D0FB681B68FA681268526842F4EA
:10362C00E0625A60002300E0022318462037BD46B2
:10363C0080BD00BF020010000000FFFF80B586B007
:10364C0000AFF8607A601A460B467B8113463B81CB
:10365C00FB6893F83D30DBB2202B40F096803B6A40
:10366C00042B02D03B6A012B0BD142F210730122C6
:10367C004849F86803F0BEF90346002B01D0022339
:10368C0084E0FB6893F83C30012B01D102237DE0F0
:10369C00FB68012283F83C20FB681B68FA681268FF
:1036AC00126822F400621A60FB68212283F83D2024
:1036BC00FB68102283F83E20FB6800221A64FB682A
:1036CC007A685A62FB683A891A85FB683A895A8586
:1036DC00FB683A6ADA62FB681B6B122B03D0FB683F
:1036EC001B6B002B23D17B8923221946F86802F02F
:1036FC0005FD0346002B0FD0FB681B6C042B05D17A
:10370C00FB68002283F83C2001233FE0FB68002289
:10371C0083F83C20032339E000237B61FB681B68A2
:10372C005B697B61FB681B689B697B617B69FB68E0
:10373C001B8D002B0CD0FB68002283F83C20FB680F
:10374C001B68FA681268526842F4E0625A601AE028
:10375C00232300221049F86803F04CF90346002B90
:10376C0001D0032312E0FB681B68FA681268126828
:10377C0042F400721A60FB68202283F83D20FB683B
:10378C00002283F83C20002300E00223184618375F
:10379C00BD4680BD020010008000010080B58AB0DB
:1037AC0000AFF8607A601A460B467B8113463B816A
:1037BC00FB6893F83D30DBB2202B40F01C813B6B57
:1037CC00042B02D03B6B012B0BD142F21073012264
:1037DC008B49F86803F00EF90346002B01D0022345
:1037EC000AE1FB6893F83C30012B01D1022303E181
:1037FC00FB68012283F83C20FB681B68FA6812689E
:10380C00126822F400621A60FB68222283F83D20C1
:10381C00FB68102283F83E20FB6800221A64FB68C8
:10382C007A685A62FB683A891A85FB683A895A8524
:10383C00FB683A6BDA62FB681B6B112B03D0FB68DD
:10384C001B6B002B18D17B8923221946F86802F0D8
:10385C00D3FC0346002B0FD0FB681B6C042B05D14B
:10386C00FB68002283F83C200123C5E0FB680022A2
:10387C0083F83C200323BFE0FB685B8D9BB2002BDD
:10388C0017D100237B62FB681B685B697B62FB685A
:10389C001B689B697B627B6AFB681B68FA68126811
:1038AC00126842F400721A60FB68202283F83D20F3
:1038BC008EE0FB685B8D9BB2012B48D1FB68DB6A09
:1038CC00042B28D0FB68DB6A082B24D0FB681B6B0D
:1038DC00122B20D0FB68DB6A022B08D0FB681B681C
:1038EC00FA681268126822F480621A6007E0FB68BA
:1038FC001B68FA681268126842F480621A6000232E
:10390C003B62FB681B685B693B62FB681B689B69DD
:10391C003B623B6A5CE0FB681B68FA6812681268E1
:10392C0022F480621A600023FB61FB681B685B69F0
:10393C00FB61FB681B689B69FB61FB69FB681B688F
:10394C00FA681268126842F400721A6040E0FB6870
:10395C005B8D9BB2022B28D1FB68DB6A022B10D04B
:10396C00FB681B68FA681268126822F480621A609D
:10397C00FB681B68FA681268126842F400621A60ED
:10398C0007E0FB681B68FA681268126842F48062F0
:10399C001A600023BB61FB681B685B69BB61FB6839
:1039AC001B689B69BB61BB6912E0FB681B68FA680A
:1039BC001268126842F480621A6000237B61FB6813
:1039CC001B685B697B61FB681B689B697B617B691E
:1039DC00FB68002283F83C20FB685B8D9BB2002BBC
:1039EC0007D0FB681B68FA681268526842F4E06200
:1039FC005A60002300E0022318462837BD4680BDDC
:103A0C000200100080B584B000AFF860B9601346B6
:103A1C00FB80FB6893F83D30DBB2202B53D1BB68A5
:103A2C00002B02D0FB88002B01D101234CE042F289
:103A3C00107301222649F86802F0DCFF0346002BC4
:103A4C0001D0022340E0FB6893F83C30012B01D1FC
:103A5C00022339E0FB68012283F83C20FB681B68D9
:103A6C00FA681268126822F400621A60FB6821225C
:103A7C0083F83D20FB68202283F83E20FB6800225F
:103A8C001A64FB68BA685A62FB68FA881A85FB6884
:103A9C00FA885A85FB680F4ADA62FB681B68FA6879
:103AAC001268126842F480621A60FB68002283F884
:103ABC003C20FB681B68FA681268526842F4E062AA
:103ACC005A60002300E0022318461037BD4680BD23
:103ADC00020010000000FFFF80B584B000AFF8605A
:103AEC00B9601346FB80FB6893F83D30DBB2202BAA
:103AFC0053D1BB68002B02D0FB88002B01D10123D2
:103B0C004CE042F2107301222649F86802F072FF71
:103B1C000346002B01D0022340E0FB6893F83C30B5
:103B2C00012B01D1022339E0FB68012283F83C20F0
:103B3C00FB681B68FA681268126822F400621A604B
:103B4C00FB68222283F83D20FB68202283F83E206C
:103B5C00FB6800221A64FB68BA685A62FB68FA8830
:103B6C001A85FB68FA885A85FB680F4ADA62FB688B
:103B7C001B68FA681268126842F480621A60FB686B
:103B8C00002283F83C20FB681B68FA6812685268B4
:103B9C0042F4E0625A60002300E00223184610371A
:103BAC00BD4680BD020010000000FFFF80B487B04E
:103BBC0000AFF860B9603B601346FB80FB6893F87C
:103BCC003D30DBB2282B4AD1BB68002B02D0FB88DE
:103BDC00002B01D1012343E0FB6893F83C30012B0F
:103BEC0001D102233CE0FB68012283F83C20FB68F6
:103BFC001B68FA681268126822F400621A60FB688B
:103C0C00292283F83D20FB68202283F83E20FB68A4
:103C1C0000221A64FB68BA685A62FB68FA881A8533
:103C2C00FB68FA885A85FB683A68DA6200237B6184
:103C3C00FB681B685B697B61FB681B689B697B612C
:103C4C007B69FB68002283F83C20FB681B68FA68E0
:103C5C001268526842F4E0625A60002300E00223CA
:103C6C0018461C37BD465DF8047B704780B487B09E
:103C7C0000AFF860B9603B601346FB80FB6893F8BB
:103C8C003D30DBB2282B4AD1BB68002B02D0FB881D
:103C9C00002B01D1012343E0FB6893F83C30012B4E
:103CAC0001D102233CE0FB68012283F83C20FB6835
:103CBC001B68FA681268126822F400621A60FB68CA
:103CCC002A2283F83D20FB68202283F83E20FB68E3
:103CDC0000221A64FB68BA685A62FB68FA881A8573
:103CEC00FB68FA885A85FB683A68DA6200237B61C4
:103CFC00FB681B685B697B61FB681B689B697B616C
:103D0C007B69FB68002283F83C20FB681B68FA681F
:103D1C001268526842F4E0625A60002300E0022309
:103D2C0018461C37BD465DF8047B704780B483B0E1
:103D3C0000AF78607B6893F83D30DBB2202B15D157
:103D4C007B68282283F83D207B681B687A681268A0
:103D5C00126842F480621A607B681B687A68126889
:103D6C00526842F440725A60002300E00223184665
:103D7C000C37BD465DF8047B704700BF80B485B03E
:103D8C0000AF78607B6893F83D30DBB2282B29D1EB
:103D9C007B6893F83D30DBB203F00303FB607B6878
:103DAC0093F83E30DBB21A46FB681A437B681A6301
:103DBC007B68202283F83D207B68002283F83E201C
:103DCC007B681B687A681268126822F480621A6039
:103DDC007B681B687A681268526822F440725A60D9
:103DEC00002300E0022318461437BD465DF8047B1F
:103DFC00704700BF80B586B000AFF8607A601A4695
:103E0C000B467B8113463B81FB6893F83D30DBB25C
:103E1C00202B40F0BA8042F2107301225D49F86801
:103E2C0002F0E8FD0346002B01D00223AEE0FB6854
:103E3C0093F83C30012B01D10223A7E0FB6801224F
:103E4C0083F83C20FB681B68FA681268126822F43D
:103E5C0000621A60FB68212283F83D20FB68102267
:103E6C0083F83E20FB6800221A64FB687A685A6269
:103E7C00FB683A891A85FB683A895A85FB68464A79
:103E8C00DA62FB681B8D002B3ED0FB685B6B434AF0
:103E9C00DA63FB685B6B424A9A64FB68586B79681F
:103EAC00FB681B6810331A463B89FCF72FFF7B8994
:103EBC0023221946F86802F021F90346002B0FD093
:103ECC00FB681B6C042B05D1FB68002283F83C209B
:103EDC0001235BE0FB68002283F83C20032355E0C0
:103EEC00FB681B68FA681268526842F400625A60F8
:103EFC0000237B61FB681B685B697B61FB681B684B
:103F0C009B697B617B693AE07B8923221946F868BF
:103F1C0002F0F4F80346002B0FD0FB681B6C042B4B
:103F2C0005D1FB68002283F83C2001232EE0FB68BE
:103F3C00002283F83C20032328E000233B61FB682C
:103F4C001B685B693B61FB681B689B693B613B6958
:103F5C00232300221349F86802F04CFD0346002B82
:103F6C0001D0032312E0FB681B68FA681268126820
:103F7C0042F400721A60FB68202283F83D20FB6833
:103F8C00002283F83C20002300E002231846183757
:103F9C00BD4680BD020010000000FFFF65660008F2
:103FAC00B16900088000010080B586B000AFF860F0
:103FBC007A601A460B467B8113463B81FB6893F86B
:103FCC003D30DBB2202B40F0C38042F21073012253
:103FDC006249F86802F00EFD0346002B01D0022363
:103FEC00B7E0FB6893F83C30012B01D10223B0E021
:103FFC00FB68012283F83C20FB681B68FA68126896
:10400C00126822F400621A60FB68222283F83D20B9
:10401C00FB68102283F83E20FB6800221A64FB68C0
:10402C007A685A62FB683A891A85FB683A895A851C
:10403C00FB684B4ADA62FB681B8D002B52D0FB6885
:10404C009B6B484ADA63FB689B6B474A9A64FB6834
:10405C00986BFB681B68103319467A683B89FCF730
:10406C0055FE7B8923221946F86802F0C5F80346F1
:10407C00002B0FD0FB681B6C042B05D1FB680022B6
:10408C0083F83C20012364E0FB68002283F83C2089
:10409C0003235EE03B89012B08D1FB681B68FA689F
:1040AC001268126822F480621A6007E0FB681B68D1
:1040BC00FA681268526842F480525A60FB681B68B6
:1040CC00FA681268526842F400625A6000237B61FD
:1040DC00FB681B685B697B61FB681B689B697B6188
:1040EC007B692FE07B8923221946F86802F084F85B
:1040FC000346002B0FD0FB681B6C042B05D1FB680F
:10410C00002283F83C20012323E0FB68002283F883
:10411C003C2003231DE000233B61FB681B685B69AB
:10412C003B61FB681B689B693B613B69FB681B68D7
:10413C00FA681268126842F400721A60FB68202256
:10414C0083F83D20FB68002283F83C20002300E02C
:10415C00022318461837BD4680BD00BF0200100070
:10416C000000FFFF75670008B169000880B483B0D8
:10417C0000AF78600B467B807B6893F83E30DBB2F7
:10418C00102B09D07B681B6C002B3BD07B681B6B06
:10419C0003F01003002B35D07B6893F83C30012BD7
:1041AC0001D102232FE07B68012283F83C207B683D
:1041BC0000221A647B681B687A681268126822F401
:1041CC0080621A607B681B687A681268126842F415
:1041DC0000721A607B6800225A857B681B687A68BB
:1041EC001268526822F4E0625A607B6800221A63FB
:1041FC007B68202283F83D207B68002283F83C20DA
:10420C00002300E0012318460C37BD465DF8047B03
:10421C00704700BF80B588B000AFF860B960134636
:10422C00FB80FB6893F83D30DBB2202B40F0A5807F
:10423C00BB68002B02D0FB88002B01D101239DE031
:10424C0042F2107301224F49F86802F0D3FB034687
:10425C00002B01D0022391E0FB6893F83C30012B3A
:10426C0001D102238AE0FB68012283F83C20FB6821
:10427C001B68FA681268126822F400621A60FB6804
:10428C00212283F83D20FB68202283F83E20FB6826
:10429C0000221A64FB68BA685A62FB68FA881A85AD
:1042AC00FB68FA885A85FB68374ADA62FB685B6BF5
:1042BC00364ADA63FB685B6B354A9A64FB68586B69
:1042CC00B968FB681B6810331A46FB88FCF71EFDA7
:1042DC00FB681B68FA681268526842F400625A6004
:1042EC00FB681B68FA681268126842F480621A60F4
:1042FC0042F2107300222749F86802F07BFB034658
:10430C00002B01D0032339E0FB681B69B3F5804F08
:10431C000BD10023FB61FB681B685B69FB61FB68CD
:10432C001B689B69FB61FB6921E00023BB61FB6897
:10433C001B685B69BB61FB681B689B69BB61BB69E4
:10434C0042F2107300221349F86802F053FB034643
:10435C00002B01D0032311E000237B61FB681B6859
:10436C005B697B61FB681B689B697B617B69FB6894
:10437C00002283F83C20002300E00223184620375B
:10438C00BD4680BD020010000000FFFFE96600087A
:10439C00B16900080200010080B586B000AFF8607A
:1043AC00B9601346FB80FB6893F83D30DBB2202BE1
:1043BC007CD1BB68002B02D0FB88002B01D10123E0
:1043CC0075E042F2107301223B49F86802F012FBCF
:1043DC000346002B01D0022369E0FB6893F83C30C4
:1043EC00012B01D1022362E0FB68012283F83C20FF
:1043FC00FB681B68FA681268126822F400621A6083
:10440C00FB68222283F83D20FB68202283F83E20A3
:10441C00FB6800221A64FB68BA685A62FB68FA8867
:10442C001A85FB68FA885A85FB68244ADA62FB68AD
:10443C009B6B234ADA63FB689B6B224A9A64FB688A
:10444C00986BFB681B6810331946BA68FB88FCF73D
:10445C005DFCFB681B68FA681268526842F40062E3
:10446C005A60FB681B68FA681268126842F4806232
:10447C001A6042F2107300221349F86802F0BAFA7B
:10448C000346002B01D0032311E000237B61FB6862
:10449C001B685B697B61FB681B689B697B617B6943
:1044AC00FB68002283F83C20002300E0022318461E
:1044BC001837BD4680BD00BF020010000000FFFF92
:1044CC00F9670008B16900080200010080B586B0E8
:1044DC0002AFF860084611461A4603467B810B462C
:1044EC003B811346FB80FB6893F83D30DBB2202BFD
:1044FC0040F0AE8042F2107301225849F86802F085
:10450C0079FA0346002B01D00223A2E0FB6893F852
:10451C003C30012B01D102239BE0FB68012283F884
:10452C003C20FB681B68FA681268126822F400626F
:10453C001A60FB68212283F83D20FB68402283F837
:10454C003E20FB6800221A64FB68454ADA62F88850
:10455C003A8979893B6A00930346F86801F016FFA3
:10456C000346002B44D0FB681B6C042B05D1FB6865
:10457C00002283F83C2001236BE0FB68002283F8C7
:10458C003C20032365E0396AF86802F035FB0346EA
:10459C00002B0FD0FB681B6C042B09D1FB681B682C
:1045AC00FA681268126842F400721A60012350E033
:1045BC0003234EE0FB681A68BB69591CB9611B7870
:1045CC001361BB8B013BBB83FB681B685B6903F00E
:1045DC000403002B0CD0BB8B002B09D0FB681A6892
:1045EC00BB69591CB9611B781361BB8B013BBB8345
:1045FC00BB8B002BC7D1396AF86802F0FDFA034671
:10460C00002B0FD0FB681B6C042B09D1FB681B68BB
:10461C00FA681268126842F400721A60012318E0FA
:10462C00032316E0FB681B68FA681268126842F4F0
:10463C0000721A60FB68202283F83D20FB68002280
:10464C0083F83E20FB68002283F83C20002300E026
:10465C00022318461037BD4680BD00BF0200100073
:10466C000000FFFF80B58AB002AFF8600846114623
:10467C001A4603467B810B463B811346FB80FB6845
:10468C0093F83D30DBB2202B40F0858142F2107361
:10469C0001228F49F86802F0ADF90346002B01D0D6
:1046AC00022379E1FB6893F83C30012B01D1022302
:1046BC0072E1FB68012283F83C20FB681B68FA68F6
:1046CC001268126822F400621A60FB68222283F8D6
:1046DC003D20FB68402283F83E20FB6800221A64D0
:1046EC00FB687C4ADA62F8883A8979893B6B0093DB
:1046FC000346F86801F0D8FE0346002B0FD0FB6888
:10470C001B6C042B05D1FB68002283F83C20012391
:10471C0042E1FB68002283F83C2003233CE1BB8D83
:10472C00002B13D10023FB61FB681B685B69FB61E9
:10473C00FB681B689B69FB61FB69FB681B68FA687B
:10474C001268126842F400721A6012E1BB8D012BE0
:10475C001BD1FB681B68FA681268126822F480622D
:10476C001A600023BB61FB681B685B69BB61FB685B
:10477C001B689B69BB61BB69FB681B68FA681268A4
:10478C00126842F400721A60F3E0BB8D022B1BD14D
:10479C00FB681B68FA681268126822F480621A605F
:1047AC00FB681B68FA681268126842F400621A60AF
:1047BC0000237B61FB681B685B697B61FB681B6882
:1047CC009B697B617B69D4E000233B61FB681B68C0
:1047DC005B693B61FB681B689B693B613B69C8E09B
:1047EC00BB8D032B00F29980BB8D012B1AD1396B39
:1047FC00F86802F0BFFA0346002B07D0FB681B6C6D
:10480C00202B01D10323C7E00123C5E0BB6A5A1C4E
:10481C00BA62FA6812681269D2B21A70BB8D013B87
:10482C00BB85A6E0BB8D022B29D13B6B00222A490C
:10483C00F86802F0DFF80346002B01D00323ABE04D
:10484C00FB681B68FA681268126842F400721A60FE
:10485C00BB6A5A1CBA62FA6812681269D2B21A7030
:10486C00BB8D013BBB85BB6A5A1CBA62FA681268E5
:10487C001269D2B21A70BB8D013BBB8579E03B6BE0
:10488C0000221549F86802F0B5F80346002B01D058
:10489C00032381E0FB681B68FA681268126822F433
:1048AC0080621A60BB6A5A1CBA62FA681268126992
:1048BC00D2B21A70BB8D013BBB853B6B0022064903
:1048CC00F86802F097F80346002B07D0032363E047
:1048DC00020010000000FFFF04000100FB681B68D1
:1048EC00FA681268126842F400721A60BB6A5A1CA9
:1048FC00BA62FA6812681269D2B21A70BB8D013BA7
:10490C00BB85BB6A5A1CBA62FA6812681269D2B2C9
:10491C001A70BB8D013BBB852BE0396BF86802F03C
:10492C0029FA0346002B07D0FB681B6C202B01D106
:10493C00032331E001232FE0BB6A5A1CBA62FA68E8
:10494C0012681269D2B21A70BB8D013BBB85FB6831
:10495C001B685B6903F00403002B0AD0BB6A5A1C6A
:10496C00BA62FA6812681269D2B21A70BB8D013B36
:10497C00BB85BB8D002B7FF433AFFB68202283F803
:10498C003D20FB68002283F83E20FB68002283F860
:10499C003C20002300E0022318462037BD4680BD92
:1049AC0080B586B002AFF860084611461A46034639
:1049BC007B810B463B811346FB80FB6893F83D30B3
:1049CC00DBB2202B7FD142F2107301224049F868F0
:1049DC0002F010F80346002B01D0022374E0FB68B0
:1049EC0093F83C30012B01D102236DE0FB680122CE
:1049FC0083F83C20FB681B68FA681268126822F482
:104A0C0000621A60FB68212283F83D20FB6840227B
:104A1C0083F83E20FB6800221A64FB68BA695A626C
:104A2C00FB68BA8B1A85FB68BA8B5A85FB68294AD6
:104A3C00DA62F8883A897989232300930346F86867
:104A4C0001F0A4FC0346002B0FD0FB681B6C042B5D
:104A5C0005D1FB68002283F83C20012334E0FB687D
:104A6C00002283F83C2003232EE0FB681B8D002BD7
:104A7C000CD0FB68002283F83C20FB681B68FA68AA
:104A8C001268526842F4E0625A601AE02323002252
:104A9C001149F86801F0AEFF0346002B01D0032347
:104AAC0012E0FB681B68FA681268126842F4007224
:104ABC001A60FB68202283F83D20FB68002283F8F3
:104ACC003C20002300E0022318461037BD4680BD71
:104ADC00020010000000FFFF8000010080B58AB0CA
:104AEC0002AFF860084611461A4603467B810B4616
:104AFC003B811346FB80FB6893F83D30DBB2202BE7
:104B0C0040F0DC8042F2107301226F49F86801F02A
:104B1C0071FF0346002B01D00223D0E0FB6893F811
:104B2C003C30012B01D10223C9E0FB68012283F840
:104B3C003C20FB681B68FA681268126822F4006259
:104B4C001A60FB68222283F83D20FB68402283F820
:104B5C003E20FB6800221A64FB68BA6A5A62FB6842
:104B6C00BA8D1A85FB68BA8D5A85FB68574ADA628A
:104B7C00F8883A897989232300930346F86801F071
:104B8C0093FC0346002B0FD0FB681B6C042B05D148
:104B9C00FB68002283F83C20012390E0FB68002294
:104BAC0083F83C2003238AE0FB685B8D9BB2002BCF
:104BBC0013D10023FB61FB681B685B69FB61FB681D
:104BCC001B689B69FB61FB69FB681B68FA681268D0
:104BDC00126842F400721A6054E0FB685B8D9BB261
:104BEC00012B1BD1FB681B68FA681268126822F44F
:104BFC0080621A600023BB61FB681B685B69BB6148
:104C0C00FB681B689B69BB61BB69FB681B68FA6826
:104C1C001268126842F400721A6033E0FB685B8D14
:104C2C009BB2022B1BD1FB681B68FA6812681268D6
:104C3C0022F480621A60FB681B68FA6812681268BA
:104C4C0042F400621A6000237B61FB681B685B699D
:104C5C007B61FB681B689B697B617B6912E0FB686D
:104C6C001B68FA681268126842F480621A600023AA
:104C7C003B61FB681B685B693B61FB681B689B695C
:104C8C003B613B69FB685B8D9BB2002B03D1FB68DE
:104C9C00202283F83D20FB68002283F83C20FB682F
:104CAC005B8D9BB2002B07D0FB681B68FA681268FF
:104CBC00526842F4E0625A60002300E00223184676
:104CCC002037BD4680BD00BF020010000000FFFF72
:104CDC0080B586B002AFF860084611461A46034606
:104CEC007B810B463B811346FB80FB6893F83D3080
:104CFC00DBB2202B40F0AA8042F2107301225649FD
:104D0C00F86801F077FE0346002B01D002239EE0E9
:104D1C00FB6893F83C30012B01D1022397E0FB6830
:104D2C00012283F83C20FB681B68FA681268126841
:104D3C0022F400621A60FB68212283F83D20FB6894
:104D4C00402283F83E20FB6800221A64FB68BA6993
:104D5C005A62FB68BA8B1A85FB68BA8B5A85FB685A
:104D6C003E4ADA62FB681B8D002B36D0FB685B6B0E
:104D7C003B4ADA63FB685B6B3A4A9A64FB68586B94
:104D8C00B969FB681B6810331A46BB8BFBF7BEFF77
:104D9C00F8883A897989232300930346F86801F04F
:104DAC00F5FA0346002B0FD0FB681B6C042B05D1C6
:104DBC00FB68002283F83C20012348E0FB680022BA
:104DCC0083F83C20032342E0FB681B68FA681268F6
:104DDC00526842F400625A6032E0F8883A89798964
:104DEC00232300930346F86801F05EFB0346002B77
:104DFC000FD0FB681B6C042B05D1FB68002283F8D9
:104E0C003C20012323E0FB68002283F83C20032391
:104E1C001DE0232300221449F86801F0EBFD034642
:104E2C00002B01D0032312E0FB681B68FA681268A0
:104E3C00126842F400721A60FB68202283F83D204D
:104E4C00FB68002283F83C20002300E00223184674
:104E5C001037BD4680BD00BF020010000000FFFFF0
:104E6C00A9680008B16900088000010080B588B00D
:104E7C0002AFF860084611461A4603467B810B4682
:104E8C003B811346FB80FB6893F83D30DBB2202B53
:104E9C0040F0C98042F2107301226549F86801F0B4
:104EAC00A9FD0346002B01D00223BDE0FB6893F85B
:104EBC003C30012B01D10223B6E0FB68012283F8C0
:104ECC003C20FB681B68FA681268126822F40062C6
:104EDC001A60FB68222283F83D20FB68402283F88D
:104EEC003E20FB6800221A64FB683A6A5A62FB682F
:104EFC00BA8C1A85FB68BA8C5A85FB684D4ADA6203
:104F0C00FB681B8D002B55D0FB689B6B4A4ADA6300
:104F1C00FB689B6B494A9A64FB68986BFB681B683F
:104F2C00103319463A6ABB8CFBF7F0FEF8883A89C5
:104F3C007989232300930346F86801F0B5FA0346F8
:104F4C00002B0FD0FB681B6C042B05D1FB680022D7
:104F5C0083F83C20012367E0FB68002283F83C20A7
:104F6C00032361E0BB8C012B08D1FB681B68FA683A
:104F7C001268126822F480621A6007E0FB681B68F2
:104F8C00FA681268526842F480525A60FB681B68D7
:104F9C00FA681268526842F400625A6000237B611E
:104FAC00FB681B685B697B61FB681B689B697B61A9
:104FBC007B6932E0F8883A89798923230093034688
:104FCC00F86801F071FA0346002B0FD0FB681B6CDC
:104FDC00042B05D1FB68002283F83C20012323E03D
:104FEC00FB68002283F83C2003231DE000233B6177
:104FFC00FB681B685B693B61FB681B689B693B61D9
:10500C003B69FB681B68FA681268126842F400720C
:10501C001A60FB68202283F83D20FB68002283F88D
:10502C003C20002300E0022318461837BD4680BD03
:10503C00020010000000FFFF2D690008B169000894
:10504C0080B58AB000AFF8607A603B600B467B811C
:10505C0000237B6100237B6200233B620023FB6106
:10506C000123BB61FB6893F83D30DBB2202B40F091
:10507C00F48042F2107301227A49F86801F0BAFC0C
:10508C000346002B01D00223E8E0FB6893F83C3088
:10509C00012B01D10223E1E0FB68012283F83C20C3
:1050AC00FB681B68FA681268126822F400621A60C6
:1050BC00FB68242283F83D20FB6800221A64FB68FD
:1050CC00694ADA62FB681B68FA681268126842F473
:1050DC0080721A603B6800224FF00111F86801F0F1
:1050EC0089FC0346002B01D00323B7E0FB681B6847
:1050FC007A89D2B202F0FE021A61FBF707F97861E5
:10510C00FB681B685B6903F00203002B14BF0123CF
:10511C000023DBB27B62FB681B685B6903F4806372
:10512C00002B14BF01230023DBB23B62FB6893F816
:10513C003D30DBB2FB6129E03B68002B07D0FBF76D
:10514C00E5F802467B69D21A3B689A4203D9FB68A0
:10515C00A02283F83D20FB681B685B6903F0020307
:10516C00002B14BF01230023DBB27B62FB681B689E
:10517C005B6903F48063002B14BF01230023DBB2B3
:10518C003B62FB6893F83D30DBB2FB617B6A002B22
:10519C0005D13B6A002B02D1FB69A02BCCD1FB685B
:1051AC00202283F83D20FB681B685B6903F0020337
:1051BC00002B28D0FB681B68FA681268126842F44E
:1051CC0000721A6000233B61FB681B685B693B61E2
:1051DC00FB681B689B693B613B6942F210730122BF
:1051EC002049F86801F006FC0346002B01D003238C
:1051FC0034E0FB68202283F83D20FB68002283F812
:10520C003C2000232AE0FB681B68FA6812681268CD
:10521C0042F400721A60FB681B686FF480625A617A
:10522C0042F2107301220F49F86801F0E3FB0346C8
:10523C00002B01D0032311E0BB695A1CBA617A68B8
:10524C009342FFF43FAFFB68202283F83D20FB68BC
:10525C00002283F83C20012300E002231846283763
:10526C00BD4680BD020010000000FFFF80B586B077
:10527C0000AF786000237B6100233B610023FB605F
:10528C000023BB607B6893F83E30DBB2102B06D05A
:10529C007B6893F83E30DBB2402B40F092807B6809
:1052AC001B689B6903F00403002B44D07B681B68CC
:1052BC005B6903F08003002B14BF01230023DBB2D6
:1052CC007B617B681B685B6803F48063002B14BFF5
:1052DC0001230023DBB23B617B681B685B6903F035
:1052EC000403002B14BF01230023DBB2FB607B689B
:1052FC001B685B6803F40073002B14BF01230023AD
:10530C00DBB2BB607B69012B09D13B69012B06D158
:10531C00FB68002B03D1786800F0CCFA50E0FB68F6
:10532C00012B40F01781BB68012B40F0138178688A
:10533C0000F0EAFA0EE17B681B685B6903F040033E
:10534C00002B14BF01230023DBB27B617B681B683D
:10535C005B6803F48063002B14BF01230023DBB2D2
:10536C003B617B681B685B6903F00403002B14BF73
:10537C0001230023DBB2FB607B681B685B6803F4D2
:10538C000073002B14BF01230023DBB2BB607B69CD
:10539C00012B09D13B69012B06D1FB68002B03D1F2
:1053AC00786800F035FB0BE0FB68012B40F0D280F5
:1053BC00BB68012B40F0CE80786800F0E5FBC9E0BB
:1053CC00C8E07B681B685B6903F00203002B14BF09
:1053DC0001230023DBB27B617B681B685B6803F4F1
:1053EC000073002B14BF01230023DBB23B617B68ED
:1053FC001B685B6903F01003002B14BF012300230F
:10540C00DBB2FB607B681B689B6903F00403002B19
:10541C0014BF01230023DBB2BB607B69012B06D1D7
:10542C003B69012B03D1786800F062FD93E0FB68C7
:10543C00012B06D13B69012B03D1786800F082FD6A
:10544C0089E0BB68012B42D17B681B685B6903F068
:10545C008003002B14BF01230023DBB27B617B682C
:10546C001B685B6803F48063002B14BF01230023CB
:10547C00DBB23B617B681B685B6903F00403002BA8
:10548C0014BF01230023DBB2FB607B681B685B68E5
:10549C0003F40073002B14BF01230023DBB2BB60A9
:1054AC007B69012B09D13B69012B06D1FB68002BD1
:1054BC0003D1786800F048FC4DE0FB68012B4AD121
:1054CC00BB68012B47D1786800F086FC43E07B6811
:1054DC001B685B6903F04003002B14BF01230023FE
:1054EC00DBB27B617B681B685B6803F48063002B19
:1054FC0014BF01230023DBB23B617B681B685B6933
:10550C0003F00403002B14BF01230023DBB2FB6068
:10551C007B681B685B6803F40073002B14BF0123CA
:10552C000023DBB2BB607B69012B09D13B69012BEA
:10553C0006D1FB68002B03D1786800F06DFC0AE003
:10554C00FB68012B07D1BB68012B04D1786800F0F4
:10555C00ADFC00E000BF00BF1837BD4680BD00BFEA
:10556C0080B586B000AF786000237B6100233B617F
:10557C000023FB600023BB607B681B685B6903F442
:10558C008073002B14BF01230023DBB27B617B688B
:10559C001B685B6803F48073002B14BF012300238A
:1055AC00DBB23B617B69012B0DD13B69012B0AD12D
:1055BC007B681B6C43F001027B681A647B681B6878
:1055CC006FF480725A617B681B685B6903F400732B
:1055DC00002B14BF01230023DBB27B617B681B68AB
:1055EC005B6803F48073002B14BF01230023DBB230
:1055FC003B617B69012B0DD13B69012B0AD17B6887
:10560C001B6C43F002027B681A647B681B686FF4A6
:10561C0000725A617B681B685B6903F48063002B22
:10562C0014BF01230023DBB27B617B681B685B68C2
:10563C0003F48073002B14BF01230023DBB23B6106
:10564C007B69012B3CD13B69012B39D17B6893F8E9
:10565C003E30DBB27B617B685B8D9BB23B617B68D0
:10566C0093F83D30DBB2FB607B681B6BBB607B69E6
:10567C00202B12D13B69002B0FD1FB68212B08D0BA
:10568C00FB68292B05D0FB68282B06D1BB68212B86
:10569C0003D1786800F0B2FC12E07B681B6C43F01D
:1056AC0004027B681A647B681B687A68126812684B
:1056BC0042F400721A607B681B686FF480625A6156
:1056CC007B681B685B6903F40063002B14BF012328
:1056DC000023DBB27B617B681B685B6803F480731F
:1056EC00002B14BF01230023DBB23B617B69012B30
:1056FC000DD13B69012B0AD17B681B6C43F008026E
:10570C007B681A647B681B686FF400625A617B6863
:10571C001B6C002B42D07B6893F83D30DBB2292BFD
:10572C0005D07B6893F83D30DBB22A2B07D17B6820
:10573C0000221A637B68282283F83D2006E07B68F0
:10574C0000221A637B68202283F83D207B681B684B
:10575C007A681268126822F400621A60786800F0A5
:10576C0077F87B6893F83D30DBB2282B16D17B6839
:10577C001B6C03F00403002B10D07B68094ADA621F
:10578C007B6800221A637B68202283F83D207B68AB
:10579C00002283F83E20786800F03CF800BF1837F0
:1057AC00BD4680BD0000FFFF80B483B000AF7860C1
:1057BC0000BF0C37BD465DF8047B704780B483B0E6
:1057CC0000AF786000BF0C37BD465DF8047B7047B6
:1057DC0080B483B000AF786000BF0C37BD465DF875
:1057EC00047B704780B483B000AF786000BF0C3787
:1057FC00BD465DF8047B704780B483B000AF786021
:10580C000B46FB7013463B8000BF0C37BD465DF862
:10581C00047B704780B483B000AF786000BF0C3756
:10582C00BD465DF8047B704780B483B000AF7860F0
:10583C0000BF0C37BD465DF8047B704780B483B065
:10584C0000AF786000BF0C37BD465DF8047B704735
:10585C0080B483B000AF786000BF0C37BD465DF8F4
:10586C00047B704780B483B000AF78607B6893F89A
:10587C003D30DBB218460C37BD465DF8047B7047F3
:10588C0080B483B000AF78607B6893F83E30DBB2B5
:10589C0018460C37BD465DF8047B704780B483B066
:1058AC0000AF78607B681B6C18460C37BD465DF802
:1058BC00047B704780B483B000AF78607B685B8DED
:1058CC009BB2002B08D17B681B687A6812685268FF
:1058DC0022F480625A600FE07B681A687B685B6A0E
:1058EC00581C796848621B7813617B685B8D9BB28E
:1058FC00013B9AB27B685A85002318460C37BD468B
:10590C005DF8047B704700BF80B584B000AF786051
:10591C007B685B8D9BB2002B10D07B681A687B6810
:10592C005B6A581C796848621B7813617B685B8DD5
:10593C009BB2013B9AB27B685A8563E07B68DB6A59
:10594C00042B2CD07B68DB6A082B28D07B68DB6AA5
:10595C0013F5803F23D07B681B687A681268526805
:10596C0022F4E0625A607B6893F83D30DBB203F0BE
:10597C000303FB607B6893F83E30DBB21A46FB688E
:10598C001A437B681A637B68002283F83E207B688D
:10599C00202283F83D207868FFF706FF32E07B6811
:1059AC001B687A681268526822F4E0625A607B685D
:1059BC001B687A681268126842F400721A607B687D
:1059CC0093F83E30DBB2402B0ED17B6800221A6379
:1059DC007B68202283F83D207B68002283F83E20E0
:1059EC007868FFF721FF0DE07B6800221A637B6863
:1059FC00202283F83D207B68002283F83E207868C3
:105A0C00FFF7D2FE002318461037BD4680BD00BFFD
:105A1C0080B584B000AF78600023FB607B685B8D41
:105A2C009BB2FB60FB68032B11D97B685B6A591C2A
:105A3C007A6851627A6812681269D2B21A707B68FD
:105A4C005B8D9BB2013B9AB27B685A8596E0FB68F2
:105A5C00022B02D0FB68032B25D17B68DB6A022B5F
:105A6C0010D07B681B687A681268126822F4806216
:105A7C001A607B681B687A681268126842F40062CC
:105A8C001A6007E07B681B687A681268126842F437
:105A9C0080621A607B681B687A681268526822F40C
:105AAC0080625A606AE07B68DB6A022B08D07B68F4
:105ABC001B687A681268126822F480621A6007E028
:105ACC007B681B687A681268126842F480621A60FC
